:1000000031EF00F00000000000EF00F00000000001
:0A0010000000000000000000F3D71C
:10001C000900F5CFE6FF0006FBE10106F9E112004D
:10002C00086A096A100E0C6E013408360936045041
:10003C00085E0550D8A0053C095ED8B007D0045026
:10004C0008260550D8B0053C0926D8900036013654
:06005C000C2EEAD7120091
:100062003F0E1A6E060E1B6E5B0E1C6E4F0E1D6E41
:10007200660E1E6E6D0E1F6E7D0E206E070E216EB9
:100082007F0E226E6F0E236E0F0EC16E93829296BA
:100092009298939A156A166A176A81A223D015500C
:1000A200000A20E1010E156E164A172A000E006E94
:1000B2001750005C02E11650630804E2630E166EEC
:1000C200000E176E010E1614016E17C002F0000E1C
:1000D2000216000E021802E1000E011802E1818AE6
:1000E20001D0819A81B204D01550010AD8B4156AA0
:1000F20016C018F017C019F00A0E046E000E056E35
:1001020016C000F017C001F090DF08C000F009C06F
:1001120001F01A0E0024E96E000E0120EA6EEECF05
:1001220083FF8088060E0C6E300E0D6E0D2EFED7EC
:100132000C2EFCD7000080980A0E046E000E056E8D
:1001420018C000F019C001F070DF00C018F001C043
:1001520019F00A0E046E000E056E67DF08C000F08B
:1001620009C001F01A0E0024E96E000E0120EA6EA9
:10017200EECF83FF8086060E0C6E300E0D6E0D2EB6
:0E018200FED70C2EFCD70000809687D7FFD743
:020000040030CA
:0D000100021F1EFF8381FF0FC00FE00F40A4
:00000001FF
