:1000000035EF01F00000000000EF00F000000000FC
:0A0010000000000000000000F3D71C
:10001C000F0E0C6E470E0D6E0D2EFED70C2EFCD750
:06002C00000000001200BC
:06003200000000001200B6
:0A003800210E0D6E0D2EFED71200F2
:1000420071BE02D0839E01D0838E71BC02D0839C8C
:1000520001D0838C71BA02D0839A01D0838A71B89D
:1000620002D0839801D083885DB002D0848401D00D
:1000720084948482DDDF849271B602D0839E01D0A3
:10008200838E71B402D0839C01D0838C71B202D072
:10009200839A01D0838A71B002D0839801D0838879
:1000A2005DB002D0848401D084948482C1DF8492C2
:0C00B2005DA002D0B2DF01D0BEDF120062
:0C00BE005D9070C071F0BEDF5D8012002C
:0A00CA00000E9EBA010E006E120037
:1000D400AECF01F0ABA202D0AB98AB8801C000F068
:0200E400120008
:1000E600969296949598959A959C959E84928494CA
:1000F600839E839C839A83988EDF8DDF8CDF838A31
:100106008388848293DF849286DF84828FDF849261
:1001160082DF84828BDF84927EDF8398848286DF0F
:10012600849279DF848282DF8492839A838E8482AA
:100136007DDF849270DF839E8388848277DF84925A
:100146008398848273DF849266DF84826FDF849271
:10015600838884826BDF84925EDF8398848266DF85
:100166008492838E838C838A838884825FDF8492E1
:0601760052DF5D80120063
:10017C000900F5CFE6FF0006FBE10106F9E11200EC
:10018C005C0E596E020E5A6E6B0E5B6E000E5C6E40
:10019C00D40E666E000E676E000E686E000E696EF1
:1001AC00CA0E5E6E000E5F6E000E606E000E616E0B
:1001BC00FF0E626EFF0E636E000E646E000E656EB7
:1001CC00AC8A900EAB6E948E949C9EAA03D0AECF4C
:0601DC0000F0FBD7120049
:1001E2000FD0800E6B6E19D0C00E6B6E16D0940EAF
:1001F2006B6E13D0D40E6B6E10D0800E6B6E0DD062
:100202006B50010AEEE06B50020AEEE06B50030AFB
:10021200EEE06B50040AEEE0F0D76C04006E6B5017
:10022200002600C06BF000C071F00ADF5D906F6ABB
:100232006F506D24E96E000E6E20EA6EEE520BE0F6
:100242006F506D24E96E000E6E20EA6EEECF70F0F4
:0A02520035DF6F2AEDD75D80120042
:0E025C00ACB202D00000FCD76BC0ADFF1200A8
:10026A00F2EC01F00E0EC16E39DF0C0E716EE4DE97
:10027A00010E716EE1DEB886B06ACF0EAF6EAC8445
:10028A0080DF000E1F1802E1000E1E183EE1540E18
:10029A006B6EDFDF010E6B6E010E6C6E380E6D6ECB
:1002AA00000E6E6E99DF020E6B6E010E6C6E490EB9
:1002BA006D6E000E6E6E90DF820E0C6EDD0E0D6E90
:1002CA000D2EFED70C2EFCD700000000F9DE0052DE
:1002DA001CE0FBDE00C06AF0820E0C6EDD0E0D6EB5
:1002EA000D2EFED70C2EFCD7000000006A50530AD0
:1002FA000CE1020E6B6E0A0E6C6E310E6D6E000E04
:10030A006E6E6ADF6AC070F0D5DE000E1F1802E159
:10031A00010E1E183EE1D4DE00523BE0D6DE00C0DC
:10032A006AF0820E0C6EDD0E0D6E0D2EFED70C2EAF
:10033A00FCD7000000006A504D0A15E1010E6B6EF1
:10034A00010E6C6E200E6D6E000E6E6E45DF020E93
:10035A006B6E010E6C6E520E6D6E000E6E6E3CDF91
:10036A006AC070F0A7DE500E6B6E73DF020E6B6E02
:10037A00090E6C6E150E6D6E000E6E6E2DDF820EFE
:10038A000C6EDD0E0D6E0D2EFED70C2EFCD7000066
:06039A00000077D7FFD739
:1003E40010EE15F0440E006E010E016EA00EF66EB6
:0E03F400030EF76E000EF86EBEEC00F0120065
:0903A00053656E64203D205000FD
:0203A900000052
:1003AB0050494320526563656976652F53656E64CA
:0103BB000041
:0703BC005265632E3D200095
:1003C3005049432053656E642F52656365697665B2
:0103D3000029
:0903D40053656E64203D205400C5
:0703DD005265632E3D200074
:020000040030CA
:0D000100021F1EFF8381FF0FC00FE00F40A4
:00000001FF
