:10000000F5EF00F00000000000EF00F0000000003D
:0A0010000000000000000000F3D71C
:06001C00000000001200CC
:100022000F0E0C6E470E0D6E0D2EFED70C2EFCD74A
:06003200000000001200B6
:0A003800210E0D6E0D2EFED71200F2
:100042002CBE02D0839E01D0838E2CBC02D0839C16
:1000520001D0838C2CBA02D0839A01D0838A2CB827
:1000620002D0839801D0838825B002D0848401D045
:1000720084948482D2DF84922CB602D0839E01D0F3
:10008200838E2CB402D0839C01D0838C2CB202D0FC
:10009200839A01D0838A2CB002D0839801D08388BE
:1000A20025B002D0848401D084948482B6DF849205
:0C00B20025A002D0B5DF01D0BEDF120097
:0C00BE0025902BC02CF0BEDF2580120026
:1000CA000900F5CFE6FF0006FBE10106F9E112009F
:1000DA00969296949598959A959C959E84928494D6
:1000EA00839E839C839A839897DF96DF95DF838A22
:1000FA00838884828EDF84928FDF84828ADF84926F
:10010A008BDF848286DF849287DF8398848281DF13
:10011A00849282DF84827DDF8492839A838E8482B2
:10012A0078DF849279DF839E8388848272DF849267
:10013A00839884826EDF84926FDF84826ADF84927E
:10014A008388848266DF849267DF8398848261DF92
:10015A008492838E838C838A838884825ADF8492F2
:06016A005BDF258012009E
:100170000FD0800E266E19D0C00E266E16D0940EAB
:10018000266E13D0D40E266E10D0800E266E0DD0A3
:100190002650010AEEE02650020AEEE02650030A3D
:1001A000EEE02650040AEEE0F0D72704006E265059
:1001B000002600C026F000C02CF043DF25902A6AFC
:1001C0002A502824E96E000E2920EA6EEE520BE038
:1001D0002A502824E96E000E2920EA6EEECF2BF07B
:0A01E0006EDF2A2AEDD725801200F9
:1001EA001CEC01F00F0EC16E73DF0C0E2C6E24DFB7
:1001FA00010E2C6E21DF010E266E030E276E150EE0
:10020A00286E000E296EAFDF020E266E040E276ED0
:0E021A001E0E286E000E296EA6DFEDD7FFD750
:1002380010EE15F0100E006E010E016E280EF66E0F
:0E024800020EF76E000EF86E65EC00F012006C
:09022800455520534F55204F00AD
:070231004241544D414E0013
:020000040030CA
:0D000100021F1EFF8381FF0FC00FE00F40A4
:00000001FF
