:1000000063EF00F00000000000EF00F000000000CF
:0A0010000000000000000000F3D71C
:0E001C00ACB202D00000FCD734C0ADFF120021
:10002A000900F5CFE6FF0006FBE10106F9E112003F
:10003A00086A096A100E0C6E013408360936045033
:10004A00085E0550D8A0053C095ED8B007D0045018
:10005A0008260550D8B0053C0926D8900036013646
:06006A000C2EEAD7120083
:100070001C0E196E000E1A6E340E1B6E000E1C6ED6
:10008000FF0E156EFF0E166E000E176E000E186E28
:10009000FF0E216EFF0E226E000E236E000E246EE8
:1000A000FF0E1D6EFF0E1E6E000E1F6E000E206EE8
:1000B000AC8A900EAB6E948E949C9EAA03D0AECF69
:0600C00000F0FBD7120066
:1000C6003F0E266E060E276E5B0E286E4F0E296EAD
:1000D600660E2A6E6D0E2B6E7D0E2C6E070E2D6E25
:1000E6007F0E2E6E6F0E2F6E306A316A326A336A59
:1000F6000F0EC16E938292969298939A956A819208
:10010600B886B06ACF0EAF6EAC84AFDF020E0B6E50
:10011600040E0C6EBA0E0D6E0D2EFED70C2EFCD7ED
:100126000B2EFAD70000010E256E306A316A30C0F8
:1001360032F031C033F00A0E046E000E056E30C088
:1001460000F031C001F076DF08C000F009C001F010
:10015600260E0024E96E000E0120EA6EEECF83FF24
:100166008088060E0C6E300E0D6E0D2EFED70C2EF0
:10017600FCD7000080980A0E046E000E056E32C091
:1001860000F033C001F056DF00C032F001C033F09A
:100196000A0E046E000E056E4DDF08C000F009C0A1
:1001A60001F0260E0024E96E000E0120EA6EEECF65
:1001B60083FF8086060E0C6E300E0D6E0D2EFED75A
:1001C6000C2EFCD70000809681A22BD02550000A69
:1001D60028E1010E256E304A312A000E006E31509C
:1001E600005C02E13050630804E2630E306E000EDC
:1001F600316E010E3014016E31C002F0000E02168F
:10020600000E021802E1000E011802E1818A01D0F7
:10021600819A30C034F0FFDE000E81BA010E346ED2
:10022600FADE81B204D02550010AD8B4256A7FD7F8
:02023600FFD7F0
:020000040030CA
:0D000100021F1EFF8381FF0FC00FE00F40A4
:00000001FF
